:100000000C9434000C943E000C943E000C943E0082
:100010000C943E000C943E000C943E000C943E0068
:100020000C943E000C943E000C943E000C943E0058
:100030000C943E000C943E000C943E000C943E0048
:100040000C943E000C943E000C943E000C943E0038
:100050000C943E000C943E000C943E000C943E0028
:100060000C943E000C943E0011241FBECFEFD8E04C
:10007000DEBFCDBF0E9440000C9464000C940000D1
:10008000CF93DF93CDB7DEB70E94570083E290E0B5
:10009000FC018081813031F485E290E022E0FC01B6
:1000A0002083F4CF85E290E0FC011082EFCFCF9364
:1000B000DF93CDB7DEB784E290E022E0FC0120833D
:0C00C0000000DF91CF910895F894FFCF6D
:00000001FF
