:100000000C9434000C943E000C943E000C943E0082
:100010000C943E000C943E000C943E000C943E0068
:100020000C943E000C943E000C943E000C943E0058
:100030000C943E000C943E000C943E000C943E0048
:100040000C943E000C943E000C943E000C943E0038
:100050000C943E000C943E000C943E000C943E0028
:100060000C943E000C943E0011241FBECFEFD8E04C
:10007000DEBFCDBF0E9440000C946F000C940000C6
:10008000CF93DF9300D0CDB7DEB719821A820E94DA
:10009000620082E08A8386E290E0FC0180818983AD
:1000A00099818A81892389838981882331F088E233
:1000B00090E021E0FC012083ECCF88E290E0FC019D
:1000C0001082E7CFCF93DF93CDB7DEB787E290E022
:1000D00021E0FC0120830000DF91CF910895F89486
:0200E000FFCF50
:00000001FF
